:020000040000FA
:020000003A289C
:080008008C00030E8D000D2099
:100010000D0E83008C0E0C0E09008B1C10282A2854
:1000200032200B11FF3081000E080A3C031D1920FD
:1000300008000515322005118E0A0E080A3C031D22
:1000400008002720630008000510851408008510AB
:100050000514080032208B108515322085118E037F
:1000600024200800FF308F009001900B35288F0B63
:10007000342808008901831638308100B0308B00A5
:1000800086010614850105160C3084008001840A5F
:10009000041E4628041C46288312FF308100850177
:0600A00024205228522822
:02400E00F23F7F
:00000001FF
